{
  "contractName": "SolnSquareVerifier",
  "abi": [
    {
      "inputs": [
        {
          "internalType": "string",
          "name": "name",
          "type": "string"
        },
        {
          "internalType": "string",
          "name": "symbol",
          "type": "string"
        }
      ],
      "payable": false,
      "stateMutability": "nonpayable",
      "type": "constructor"
    },
    {
      "anonymous": false,
      "inputs": [
        {
          "indexed": true,
          "internalType": "address",
          "name": "owner",
          "type": "address"
        },
        {
          "indexed": true,
          "internalType": "address",
          "name": "approved",
          "type": "address"
        },
        {
          "indexed": true,
          "internalType": "uint256",
          "name": "tokenId",
          "type": "uint256"
        }
      ],
      "name": "Approval",
      "type": "event"
    },
    {
      "anonymous": false,
      "inputs": [
        {
          "indexed": true,
          "internalType": "address",
          "name": "owner",
          "type": "address"
        },
        {
          "indexed": true,
          "internalType": "address",
          "name": "operator",
          "type": "address"
        },
        {
          "indexed": false,
          "internalType": "bool",
          "name": "approved",
          "type": "bool"
        }
      ],
      "name": "ApprovalForAll",
      "type": "event"
    },
    {
      "anonymous": false,
      "inputs": [
        {
          "indexed": false,
          "internalType": "address",
          "name": "to",
          "type": "address"
        },
        {
          "indexed": false,
          "internalType": "uint256",
          "name": "tokenId",
          "type": "uint256"
        }
      ],
      "name": "Minted",
      "type": "event"
    },
    {
      "anonymous": false,
      "inputs": [
        {
          "indexed": false,
          "internalType": "address",
          "name": "sender",
          "type": "address"
        }
      ],
      "name": "Paused",
      "type": "event"
    },
    {
      "anonymous": false,
      "inputs": [
        {
          "indexed": false,
          "internalType": "uint256",
          "name": "index",
          "type": "uint256"
        },
        {
          "indexed": false,
          "internalType": "address",
          "name": "client",
          "type": "address"
        }
      ],
      "name": "SolutionAdded",
      "type": "event"
    },
    {
      "anonymous": false,
      "inputs": [
        {
          "indexed": true,
          "internalType": "address",
          "name": "from",
          "type": "address"
        },
        {
          "indexed": true,
          "internalType": "address",
          "name": "to",
          "type": "address"
        },
        {
          "indexed": true,
          "internalType": "uint256",
          "name": "tokenId",
          "type": "uint256"
        }
      ],
      "name": "Transfer",
      "type": "event"
    },
    {
      "anonymous": false,
      "inputs": [
        {
          "indexed": false,
          "internalType": "address",
          "name": "sender",
          "type": "address"
        }
      ],
      "name": "Unpaused",
      "type": "event"
    },
    {
      "constant": false,
      "inputs": [
        {
          "internalType": "bytes32",
          "name": "_myid",
          "type": "bytes32"
        },
        {
          "internalType": "string",
          "name": "_result",
          "type": "string"
        }
      ],
      "name": "__callback",
      "outputs": [],
      "payable": false,
      "stateMutability": "nonpayable",
      "type": "function"
    },
    {
      "constant": false,
      "inputs": [
        {
          "internalType": "bytes32",
          "name": "_myid",
          "type": "bytes32"
        },
        {
          "internalType": "string",
          "name": "_result",
          "type": "string"
        },
        {
          "internalType": "bytes",
          "name": "_proof",
          "type": "bytes"
        }
      ],
      "name": "__callback",
      "outputs": [],
      "payable": false,
      "stateMutability": "nonpayable",
      "type": "function"
    },
    {
      "constant": false,
      "inputs": [
        {
          "internalType": "address",
          "name": "to",
          "type": "address"
        },
        {
          "internalType": "uint256",
          "name": "tokenId",
          "type": "uint256"
        }
      ],
      "name": "approve",
      "outputs": [],
      "payable": false,
      "stateMutability": "nonpayable",
      "type": "function"
    },
    {
      "constant": true,
      "inputs": [
        {
          "internalType": "address",
          "name": "owner",
          "type": "address"
        }
      ],
      "name": "balanceOf",
      "outputs": [
        {
          "internalType": "uint256",
          "name": "",
          "type": "uint256"
        }
      ],
      "payable": false,
      "stateMutability": "view",
      "type": "function"
    },
    {
      "constant": true,
      "inputs": [],
      "name": "baseTokenURI",
      "outputs": [
        {
          "internalType": "string",
          "name": "",
          "type": "string"
        }
      ],
      "payable": false,
      "stateMutability": "view",
      "type": "function"
    },
    {
      "constant": true,
      "inputs": [
        {
          "internalType": "uint256",
          "name": "tokenId",
          "type": "uint256"
        }
      ],
      "name": "getApproved",
      "outputs": [
        {
          "internalType": "address",
          "name": "",
          "type": "address"
        }
      ],
      "payable": false,
      "stateMutability": "view",
      "type": "function"
    },
    {
      "constant": true,
      "inputs": [],
      "name": "getOwner",
      "outputs": [
        {
          "internalType": "address",
          "name": "",
          "type": "address"
        }
      ],
      "payable": false,
      "stateMutability": "view",
      "type": "function"
    },
    {
      "constant": true,
      "inputs": [
        {
          "internalType": "address",
          "name": "owner",
          "type": "address"
        },
        {
          "internalType": "address",
          "name": "operator",
          "type": "address"
        }
      ],
      "name": "isApprovedForAll",
      "outputs": [
        {
          "internalType": "bool",
          "name": "",
          "type": "bool"
        }
      ],
      "payable": false,
      "stateMutability": "view",
      "type": "function"
    },
    {
      "constant": true,
      "inputs": [
        {
          "internalType": "uint256",
          "name": "tokenId",
          "type": "uint256"
        }
      ],
      "name": "ownerOf",
      "outputs": [
        {
          "internalType": "address",
          "name": "",
          "type": "address"
        }
      ],
      "payable": false,
      "stateMutability": "view",
      "type": "function"
    },
    {
      "constant": false,
      "inputs": [
        {
          "internalType": "address",
          "name": "from",
          "type": "address"
        },
        {
          "internalType": "address",
          "name": "to",
          "type": "address"
        },
        {
          "internalType": "uint256",
          "name": "tokenId",
          "type": "uint256"
        }
      ],
      "name": "safeTransferFrom",
      "outputs": [],
      "payable": false,
      "stateMutability": "nonpayable",
      "type": "function"
    },
    {
      "constant": false,
      "inputs": [
        {
          "internalType": "address",
          "name": "from",
          "type": "address"
        },
        {
          "internalType": "address",
          "name": "to",
          "type": "address"
        },
        {
          "internalType": "uint256",
          "name": "tokenId",
          "type": "uint256"
        },
        {
          "internalType": "bytes",
          "name": "_data",
          "type": "bytes"
        }
      ],
      "name": "safeTransferFrom",
      "outputs": [],
      "payable": false,
      "stateMutability": "nonpayable",
      "type": "function"
    },
    {
      "constant": false,
      "inputs": [
        {
          "internalType": "address",
          "name": "to",
          "type": "address"
        },
        {
          "internalType": "bool",
          "name": "approved",
          "type": "bool"
        }
      ],
      "name": "setApprovalForAll",
      "outputs": [],
      "payable": false,
      "stateMutability": "nonpayable",
      "type": "function"
    },
    {
      "constant": false,
      "inputs": [
        {
          "internalType": "bool",
          "name": "state",
          "type": "bool"
        }
      ],
      "name": "setPaused",
      "outputs": [],
      "payable": false,
      "stateMutability": "nonpayable",
      "type": "function"
    },
    {
      "constant": true,
      "inputs": [
        {
          "internalType": "bytes4",
          "name": "interfaceId",
          "type": "bytes4"
        }
      ],
      "name": "supportsInterface",
      "outputs": [
        {
          "internalType": "bool",
          "name": "",
          "type": "bool"
        }
      ],
      "payable": false,
      "stateMutability": "view",
      "type": "function"
    },
    {
      "constant": true,
      "inputs": [
        {
          "internalType": "uint256",
          "name": "index",
          "type": "uint256"
        }
      ],
      "name": "tokenByIndex",
      "outputs": [
        {
          "internalType": "uint256",
          "name": "",
          "type": "uint256"
        }
      ],
      "payable": false,
      "stateMutability": "view",
      "type": "function"
    },
    {
      "constant": true,
      "inputs": [],
      "name": "tokenName",
      "outputs": [
        {
          "internalType": "string",
          "name": "",
          "type": "string"
        }
      ],
      "payable": false,
      "stateMutability": "view",
      "type": "function"
    },
    {
      "constant": true,
      "inputs": [
        {
          "internalType": "address",
          "name": "owner",
          "type": "address"
        },
        {
          "internalType": "uint256",
          "name": "index",
          "type": "uint256"
        }
      ],
      "name": "tokenOfOwnerByIndex",
      "outputs": [
        {
          "internalType": "uint256",
          "name": "",
          "type": "uint256"
        }
      ],
      "payable": false,
      "stateMutability": "view",
      "type": "function"
    },
    {
      "constant": true,
      "inputs": [],
      "name": "tokenSymbol",
      "outputs": [
        {
          "internalType": "string",
          "name": "",
          "type": "string"
        }
      ],
      "payable": false,
      "stateMutability": "view",
      "type": "function"
    },
    {
      "constant": true,
      "inputs": [
        {
          "internalType": "uint256",
          "name": "tokenId",
          "type": "uint256"
        }
      ],
      "name": "tokenURI",
      "outputs": [
        {
          "internalType": "string",
          "name": "",
          "type": "string"
        }
      ],
      "payable": false,
      "stateMutability": "view",
      "type": "function"
    },
    {
      "constant": true,
      "inputs": [],
      "name": "totalSupply",
      "outputs": [
        {
          "internalType": "uint256",
          "name": "",
          "type": "uint256"
        }
      ],
      "payable": false,
      "stateMutability": "view",
      "type": "function"
    },
    {
      "constant": false,
      "inputs": [
        {
          "internalType": "address",
          "name": "from",
          "type": "address"
        },
        {
          "internalType": "address",
          "name": "to",
          "type": "address"
        },
        {
          "internalType": "uint256",
          "name": "tokenId",
          "type": "uint256"
        }
      ],
      "name": "transferFrom",
      "outputs": [],
      "payable": false,
      "stateMutability": "nonpayable",
      "type": "function"
    },
    {
      "constant": false,
      "inputs": [
        {
          "internalType": "address",
          "name": "newOwner",
          "type": "address"
        }
      ],
      "name": "transferOwnership",
      "outputs": [],
      "payable": false,
      "stateMutability": "nonpayable",
      "type": "function"
    },
    {
      "constant": false,
      "inputs": [
        {
          "internalType": "address",
          "name": "to",
          "type": "address"
        },
        {
          "internalType": "uint256",
          "name": "tokenId",
          "type": "uint256"
        },
        {
          "internalType": "string",
          "name": "tokenURI",
          "type": "string"
        }
      ],
      "name": "mint",
      "outputs": [
        {
          "internalType": "bool",
          "name": "",
          "type": "bool"
        }
      ],
      "payable": false,
      "stateMutability": "nonpayable",
      "type": "function"
    },
    {
      "constant": false,
      "inputs": [
        {
          "internalType": "address",
          "name": "to",
          "type": "address"
        },
        {
          "internalType": "uint256",
          "name": "tokenId",
          "type": "uint256"
        },
        {
          "internalType": "uint256[2]",
          "name": "a",
          "type": "uint256[2]"
        },
        {
          "internalType": "uint256[2][2]",
          "name": "b",
          "type": "uint256[2][2]"
        },
        {
          "internalType": "uint256[2]",
          "name": "c",
          "type": "uint256[2]"
        },
        {
          "internalType": "uint256[2]",
          "name": "input",
          "type": "uint256[2]"
        }
      ],
      "name": "mint",
      "outputs": [],
      "payable": false,
      "stateMutability": "nonpayable",
      "type": "function"
    }
  ],
  "bytecode": "0x60806040523480156200001157600080fd5b5060405162004d0e38038062004d0e833981810160405260408110156200003757600080fd5b81019080805160405193929190846401000000008211156200005857600080fd5b838201915060208201858111156200006f57600080fd5b82518660018202830111640100000000821117156200008d57600080fd5b8083526020830192505050908051906020019080838360005b83811015620000c3578082015181840152602081019050620000a6565b50505050905090810190601f168015620000f15780820380516001836020036101000a031916815260200191505b50604052602001805160405193929190846401000000008211156200011557600080fd5b838201915060208201858111156200012c57600080fd5b82518660018202830111640100000000821117156200014a57600080fd5b8083526020830192505050908051906020019080838360005b838110156200018057808201518184015260208101905062000163565b50505050905090810190601f168015620001ae5780820380516001836020036101000a031916815260200191505b50604052505050818181816040518060600160405280603f815260200162004ccf603f9139336000806101000a81548173ffffffffffffffffffffffffffffffffffffffff021916908373ffffffffffffffffffffffffffffffffffffffff16021790555060008060146101000a81548160ff021916908315150217905550620002456301ffc9a760e01b6200039260201b60201c565b6200025d6380ac58cd60e01b6200039260201b60201c565b6200027563780e9d6360e01b6200039260201b60201c565b82600f90805190602001906200028d92919062000432565b508160109080519060200190620002a692919062000432565b508060119080519060200190620002bf92919062000432565b50620002d8635b5e139f60e01b6200039260201b60201c565b505050505033601460006101000a81548173ffffffffffffffffffffffffffffffffffffffff021916908373ffffffffffffffffffffffffffffffffffffffff1602179055506040516200032c90620004b9565b604051809103906000f08015801562000349573d6000803e3d6000fd5b50601660006101000a81548173ffffffffffffffffffffffffffffffffffffffff021916908373ffffffffffffffffffffffffffffffffffffffff1602179055505050620004ef565b63ffffffff60e01b817bffffffffffffffffffffffffffffffffffffffffffffffffffffffff19161415620003c657600080fd5b6001806000837bffffffffffffffffffffffffffffffffffffffffffffffffffffffff19167bffffffffffffffffffffffffffffffffffffffffffffffffffffffff1916815260200190815260200160002060006101000a81548160ff02191690831515021790555050565b828054600181600116156101000203166002900490600052602060002090601f016020900481019282601f106200047557805160ff1916838001178555620004a6565b82800160010185558215620004a6579182015b82811115620004a557825182559160200191906001019062000488565b5b509050620004b59190620004c7565b5090565b6110aa8062003c2583390190565b620004ec91905b80821115620004e8576000816000905550600101620004ce565b5090565b90565b61372680620004ff6000396000f3fe608060405234801561001057600080fd5b50600436106101585760003560e01c80636c02a931116100c3578063c87b56dd1161007c578063c87b56dd146109d8578063d3fc986414610a7f578063d547cfb714610b7c578063e985e9c514610bff578063f2fde38b14610c7b578063fec6cfb914610cbf57610158565b80636c02a931146106db57806370a082311461075e5780637b61c320146107b6578063893d20e814610839578063a22cb46514610883578063b88d4fde146108d357610158565b806327dc297e1161011557806327dc297e1461033a5780632f745c59146103ff57806338bbfa501461046157806342842e0e146105bd5780634f6ccce71461062b5780636352211e1461066d57610158565b806301ffc9a71461015d578063081812fc146101c2578063095ea7b31461023057806316c38b3c1461027e57806318160ddd146102ae57806323b872dd146102cc575b600080fd5b6101a86004803603602081101561017357600080fd5b8101908080357bffffffffffffffffffffffffffffffffffffffffffffffffffffffff19169060200190929190505050610e4a565b604051808215151515815260200191505060405180910390f35b6101ee600480360360208110156101d857600080fd5b8101908080359060200190929190505050610eb2565b604051808273ffffffffffffffffffffffffffffffffffffffff1673ffffffffffffffffffffffffffffffffffffffff16815260200191505060405180910390f35b61027c6004803603604081101561024657600080fd5b81019080803573ffffffffffffffffffffffffffffffffffffffff16906020019092919080359060200190929190505050610fa7565b005b6102ac6004803603602081101561029457600080fd5b810190808035151590602001909291905050506111ac565b005b6102b661126f565b6040518082815260200191505060405180910390f35b610338600480360360608110156102e257600080fd5b81019080803573ffffffffffffffffffffffffffffffffffffffff169060200190929190803573ffffffffffffffffffffffffffffffffffffffff1690602001909291908035906020019092919050505061127c565b005b6103fd6004803603604081101561035057600080fd5b81019080803590602001909291908035906020019064010000000081111561037757600080fd5b82018360208201111561038957600080fd5b803590602001918460018302840111640100000000831117156103ab57600080fd5b91908080601f016020809104026020016040519081016040528093929190818152602001838380828437600081840152601f19601f82011690508083019250505050505050919291929050505061129f565b005b61044b6004803603604081101561041557600080fd5b81019080803573ffffffffffffffffffffffffffffffffffffffff169060200190929190803590602001909291905050506112e2565b6040518082815260200191505060405180910390f35b6105bb6004803603606081101561047757600080fd5b81019080803590602001909291908035906020019064010000000081111561049e57600080fd5b8201836020820111156104b057600080fd5b803590602001918460018302840111640100000000831117156104d257600080fd5b91908080601f016020809104026020016040519081016040528093929190818152602001838380828437600081840152601f19601f8201169050808301925050505050505091929192908035906020019064010000000081111561053557600080fd5b82018360208201111561054757600080fd5b8035906020019184600183028401116401000000008311171561056957600080fd5b91908080601f016020809104026020016040519081016040528093929190818152602001838380828437600081840152601f19601f820116905080830192505050505050509192919290505050611355565b005b610629600480360360608110156105d357600080fd5b81019080803573ffffffffffffffffffffffffffffffffffffffff169060200190929190803573ffffffffffffffffffffffffffffffffffffffff1690602001909291908035906020019092919050505061135a565b005b6106576004803603602081101561064157600080fd5b810190808035906020019092919050505061137a565b6040518082815260200191505060405180910390f35b6106996004803603602081101561068357600080fd5b81019080803590602001909291905050506113ae565b604051808273ffffffffffffffffffffffffffffffffffffffff1673ffffffffffffffffffffffffffffffffffffffff16815260200191505060405180910390f35b6106e36113eb565b6040518080602001828103825283818151815260200191508051906020019080838360005b83811015610723578082015181840152602081019050610708565b50505050905090810190601f1680156107505780820380516001836020036101000a031916815260200191505b509250505060405180910390f35b6107a06004803603602081101561077457600080fd5b81019080803573ffffffffffffffffffffffffffffffffffffffff16906020019092919050505061148d565b6040518082815260200191505060405180910390f35b6107be6114dd565b6040518080602001828103825283818151815260200191508051906020019080838360005b838110156107fe5780820151818401526020810190506107e3565b50505050905090810190601f16801561082b5780820380516001836020036101000a031916815260200191505b509250505060405180910390f35b61084161157f565b604051808273ffffffffffffffffffffffffffffffffffffffff1673ffffffffffffffffffffffffffffffffffffffff16815260200191505060405180910390f35b6108d16004803603604081101561089957600080fd5b81019080803573ffffffffffffffffffffffffffffffffffffffff1690602001909291908035151590602001909291905050506115a8565b005b6109d6600480360360808110156108e957600080fd5b81019080803573ffffffffffffffffffffffffffffffffffffffff169060200190929190803573ffffffffffffffffffffffffffffffffffffffff169060200190929190803590602001909291908035906020019064010000000081111561095057600080fd5b82018360208201111561096257600080fd5b8035906020019184600183028401116401000000008311171561098457600080fd5b91908080601f016020809104026020016040519081016040528093929190818152602001838380828437600081840152601f19601f8201169050808301925050505050505091929192905050506116e2565b005b610a04600480360360208110156109ee57600080fd5b8101908080359060200190929190505050611708565b6040518080602001828103825283818151815260200191508051906020019080838360005b83811015610a44578082015181840152602081019050610a29565b50505050905090810190601f168015610a715780820380516001836020036101000a031916815260200191505b509250505060405180910390f35b610b6260048036036060811015610a9557600080fd5b81019080803573ffffffffffffffffffffffffffffffffffffffff1690602001909291908035906020019092919080359060200190640100000000811115610adc57600080fd5b820183602082011115610aee57600080fd5b80359060200191846001830284011164010000000083111715610b1057600080fd5b91908080601f016020809104026020016040519081016040528093929190818152602001838380828437600081840152601f19601f82011690508083019250505050505050919291929050505061181b565b604051808215151515815260200191505060405180910390f35b610b846118e1565b6040518080602001828103825283818151815260200191508051906020019080838360005b83811015610bc4578082015181840152602081019050610ba9565b50505050905090810190601f168015610bf15780820380516001836020036101000a031916815260200191505b509250505060405180910390f35b610c6160048036036040811015610c1557600080fd5b81019080803573ffffffffffffffffffffffffffffffffffffffff169060200190929190803573ffffffffffffffffffffffffffffffffffffffff169060200190929190505050611983565b604051808215151515815260200191505060405180910390f35b610cbd60048036036020811015610c9157600080fd5b81019080803573ffffffffffffffffffffffffffffffffffffffff169060200190929190505050611a17565b005b610e486004803603610180811015610cd657600080fd5b81019080803573ffffffffffffffffffffffffffffffffffffffff1690602001909291908035906020019092919080604001906002806020026040519081016040528092919082600260200280828437600081840152601f19601f82011690508083019250505050505091929192908060800190600280602002604051908101604052809291906000905b82821015610db5578382604002016002806020026040519081016040528092919082600260200280828437600081840152601f19601f82011690508083019250505050505081526020019060010190610d61565b50505050919291929080604001906002806020026040519081016040528092919082600260200280828437600081840152601f19601f820116905080830192505050505050919291929080604001906002806020026040519081016040528092919082600260200280828437600081840152601f19601f8201169050808301925050505050509192919290505050611b86565b005b600060016000837bffffffffffffffffffffffffffffffffffffffffffffffffffffffff19167bffffffffffffffffffffffffffffffffffffffffffffffffffffffff1916815260200190815260200160002060009054906101000a900460ff169050919050565b60008073ffffffffffffffffffffffffffffffffffffffff166003600084815260200190815260200160002060009054906101000a900473ffffffffffffffffffffffffffffffffffffffff1673ffffffffffffffffffffffffffffffffffffffff161415610f6c576040517f08c379a000000000000000000000000000000000000000000000000000000000815260040180806020018281038252602c815260200180613508602c913960400191505060405180910390fd5b6003600083815260200190815260200160002060009054906101000a900473ffffffffffffffffffffffffffffffffffffffff169050919050565b8173ffffffffffffffffffffffffffffffffffffffff166003600083815260200190815260200160002060009054906101000a900473ffffffffffffffffffffffffffffffffffffffff1673ffffffffffffffffffffffffffffffffffffffff16141561105f576040517f08c379a00000000000000000000000000000000000000000000000000000000081526004018080602001828103825260218152602001806135f66021913960400191505060405180910390fd5b61106761157f565b73ffffffffffffffffffffffffffffffffffffffff163373ffffffffffffffffffffffffffffffffffffffff1614806110a657506110a53383611983565b5b6110fb576040517f08c379a00000000000000000000000000000000000000000000000000000000081526004018080602001828103825260318152602001806135596031913960400191505060405180910390fd5b816003600083815260200190815260200160002060006101000a81548173ffffffffffffffffffffffffffffffffffffffff021916908373ffffffffffffffffffffffffffffffffffffffff160217905550808273ffffffffffffffffffffffffffffffffffffffff163373ffffffffffffffffffffffffffffffffffffffff167f8c5be1e5ebec7d5bd14f71427d1e84f3dd0314c0f7b2291e5b200ac8c7c3b92560405160405180910390a45050565b601460009054906101000a900473ffffffffffffffffffffffffffffffffffffffff1673ffffffffffffffffffffffffffffffffffffffff163373ffffffffffffffffffffffffffffffffffffffff1614611252576040517f08c379a00000000000000000000000000000000000000000000000000000000081526004018080602001828103825260228152602001806135ac6022913960400191505060405180910390fd5b80600060146101000a81548160ff02191690831515021790555050565b6000600880549050905090565b6112863382611fc9565b61128f57600080fd5b61129a83838361205e565b505050565b6112de828260006040519080825280601f01601f1916602001820160405280156112d85781602001600182028038833980820191505090505b50611355565b5050565b60006112ed8361148d565b82106112f857600080fd5b600660008473ffffffffffffffffffffffffffffffffffffffff1673ffffffffffffffffffffffffffffffffffffffff168152602001908152602001600020828154811061134257fe5b9060005260206000200154905092915050565b505050565b611375838383604051806020016040528060008152506116e2565b505050565b600061138461126f565b821061138f57600080fd5b6008828154811061139c57fe5b90600052602060002001549050919050565b60006002600083815260200190815260200160002060009054906101000a900473ffffffffffffffffffffffffffffffffffffffff169050919050565b6060600f8054600181600116156101000203166002900480601f0160208091040260200160405190810160405280929190818152602001828054600181600116156101000203166002900480156114835780601f1061145857610100808354040283529160200191611483565b820191906000526020600020905b81548152906001019060200180831161146657829003601f168201915b5050505050905090565b60006114d6600460008473ffffffffffffffffffffffffffffffffffffffff1673ffffffffffffffffffffffffffffffffffffffff168152602001908152602001600020612082565b9050919050565b606060108054600181600116156101000203166002900480601f0160208091040260200160405190810160405280929190818152602001828054600181600116156101000203166002900480156115755780601f1061154a57610100808354040283529160200191611575565b820191906000526020600020905b81548152906001019060200180831161155857829003601f168201915b5050505050905090565b60008060009054906101000a900473ffffffffffffffffffffffffffffffffffffffff16905090565b3373ffffffffffffffffffffffffffffffffffffffff168273ffffffffffffffffffffffffffffffffffffffff1614156115e157600080fd5b80600560003373ffffffffffffffffffffffffffffffffffffffff1673ffffffffffffffffffffffffffffffffffffffff16815260200190815260200160002060008473ffffffffffffffffffffffffffffffffffffffff1673ffffffffffffffffffffffffffffffffffffffff16815260200190815260200160002060006101000a81548160ff0219169083151502179055508173ffffffffffffffffffffffffffffffffffffffff163373ffffffffffffffffffffffffffffffffffffffff167f17307eab39ab6107e8899845ad3d59bd9653f200f220920489ca2b5937696c3183604051808215151515815260200191505060405180910390a35050565b6116ed84848461127c565b6116f984848484612090565b61170257600080fd5b50505050565b606061171382612279565b611768576040517f08c379a00000000000000000000000000000000000000000000000000000000081526004018080602001828103825260228152602001806136d06022913960400191505060405180910390fd5b601260008381526020019081526020016000208054600181600116156101000203166002900480601f01602080910402602001604051908101604052809291908181526020018280546001816001161561010002031660029004801561180f5780601f106117e45761010080835404028352916020019161180f565b820191906000526020600020905b8154815290600101906020018083116117f257829003601f168201915b50505050509050919050565b6000601460009054906101000a900473ffffffffffffffffffffffffffffffffffffffff1673ffffffffffffffffffffffffffffffffffffffff163373ffffffffffffffffffffffffffffffffffffffff16146118c3576040517f08c379a00000000000000000000000000000000000000000000000000000000081526004018080602001828103825260228152602001806135ac6022913960400191505060405180910390fd5b6118cd84846122eb565b6118d68361230c565b600190509392505050565b606060118054600181600116156101000203166002900480601f0160208091040260200160405190810160405280929190818152602001828054600181600116156101000203166002900480156119795780601f1061194e57610100808354040283529160200191611979565b820191906000526020600020905b81548152906001019060200180831161195c57829003601f168201915b5050505050905090565b6000600560008473ffffffffffffffffffffffffffffffffffffffff1673ffffffffffffffffffffffffffffffffffffffff16815260200190815260200160002060008373ffffffffffffffffffffffffffffffffffffffff1673ffffffffffffffffffffffffffffffffffffffff16815260200190815260200160002060009054906101000a900460ff16905092915050565b601460009054906101000a900473ffffffffffffffffffffffffffffffffffffffff1673ffffffffffffffffffffffffffffffffffffffff163373ffffffffffffffffffffffffffffffffffffffff1614611abd576040517f08c379a00000000000000000000000000000000000000000000000000000000081526004018080602001828103825260228152602001806135ac6022913960400191505060405180910390fd5b600073ffffffffffffffffffffffffffffffffffffffff168173ffffffffffffffffffffffffffffffffffffffff161415611b43576040517f08c379a000000000000000000000000000000000000000000000000000000000815260040180806020018281038252602a81526020018061363d602a913960400191505060405180910390fd5b806000806101000a81548173ffffffffffffffffffffffffffffffffffffffff021916908373ffffffffffffffffffffffffffffffffffffffff16021790555050565b601460009054906101000a900473ffffffffffffffffffffffffffffffffffffffff1673ffffffffffffffffffffffffffffffffffffffff163373ffffffffffffffffffffffffffffffffffffffff1614611c2c576040517f08c379a00000000000000000000000000000000000000000000000000000000081526004018080602001828103825260228152602001806135ac6022913960400191505060405180910390fd5b60008587604051602001808381526020018273ffffffffffffffffffffffffffffffffffffffff1673ffffffffffffffffffffffffffffffffffffffff1660601b815260140192505050604051602081830303815290604052805190602001209050600073ffffffffffffffffffffffffffffffffffffffff166015600083815260200190815260200160002060010160009054906101000a900473ffffffffffffffffffffffffffffffffffffffff1673ffffffffffffffffffffffffffffffffffffffff1614611d49576040517f08c379a000000000000000000000000000000000000000000000000000000000815260040180806020018281038252602a815260200180613667602a913960400191505060405180910390fd5b601660009054906101000a900473ffffffffffffffffffffffffffffffffffffffff1673ffffffffffffffffffffffffffffffffffffffff1663621e9ec0868686866040518563ffffffff1660e01b81526004018085600260200280838360005b83811015611dc5578082015181840152602081019050611daa565b505050509050018460026000925b81841015611e195782846020020151600260200280838360005b83811015611e08578082015181840152602081019050611ded565b505050509050019260010192611dd3565b9250505083600260200280838360005b83811015611e44578082015181840152602081019050611e29565b5050505090500182600260200280838360005b83811015611e72578082015181840152602081019050611e57565b5050505090500194505050505060206040518083038186803b158015611e9757600080fd5b505afa158015611eab573d6000803e3d6000fd5b505050506040513d6020811015611ec157600080fd5b8101908080519060200190929190505050611f27576040517f08c379a00000000000000000000000000000000000000000000000000000000081526004018080602001828103825260258152602001806135346025913960400191505060405180910390fd5b611f318688612446565b611f5487876040518060600160405280603f8152602001613691603f913961181b565b507f30385c845b448a36257a6a1716e6ad2e1bc2cbe333cde1e69fe849ad6511adfe8787604051808373ffffffffffffffffffffffffffffffffffffffff1673ffffffffffffffffffffffffffffffffffffffff1681526020018281526020019250505060405180910390a150505050505050565b600080611fd5836113ae565b90508073ffffffffffffffffffffffffffffffffffffffff168473ffffffffffffffffffffffffffffffffffffffff16148061204457508373ffffffffffffffffffffffffffffffffffffffff1661202c84610eb2565b73ffffffffffffffffffffffffffffffffffffffff16145b8061205557506120548185611983565b5b91505092915050565b612069838383612638565b61207383826128be565b61207d8282612a5c565b505050565b600081600001549050919050565b60006120b18473ffffffffffffffffffffffffffffffffffffffff16612b23565b6120be5760019050612271565b60008473ffffffffffffffffffffffffffffffffffffffff1663150b7a02338887876040518563ffffffff1660e01b8152600401808573ffffffffffffffffffffffffffffffffffffffff1673ffffffffffffffffffffffffffffffffffffffff1681526020018473ffffffffffffffffffffffffffffffffffffffff1673ffffffffffffffffffffffffffffffffffffffff16815260200183815260200180602001828103825283818151815260200191508051906020019080838360005b8381101561219957808201518184015260208101905061217e565b50505050905090810190601f1680156121c65780820380516001836020036101000a031916815260200191505b5095505050505050602060405180830381600087803b1580156121e857600080fd5b505af11580156121fc573d6000803e3d6000fd5b505050506040513d602081101561221257600080fd5b8101908080519060200190929190505050905063150b7a0260e01b7bffffffffffffffffffffffffffffffffffffffffffffffffffffffff1916817bffffffffffffffffffffffffffffffffffffffffffffffffffffffff1916149150505b949350505050565b6000806002600084815260200190815260200160002060009054906101000a900473ffffffffffffffffffffffffffffffffffffffff169050600073ffffffffffffffffffffffffffffffffffffffff168173ffffffffffffffffffffffffffffffffffffffff161415915050919050565b6122f58282612b6e565b6122ff8282612a5c565b61230881612d86565b5050565b61231581612279565b61236a576040517f08c379a00000000000000000000000000000000000000000000000000000000081526004018080602001828103825260268152602001806136176026913960400191505060405180910390fd5b606061241860118054600181600116156101000203166002900480601f0160208091040260200160405190810160405280929190818152602001828054600181600116156101000203166002900480156124055780601f106123da57610100808354040283529160200191612405565b820191906000526020600020905b8154815290600101906020018083116123e857829003601f168201915b505050505061241384612dd2565b612eff565b905080601260008481526020019081526020016000209080519060200190612441929190613406565b505050565b61244e613486565b60405180604001604052808481526020018373ffffffffffffffffffffffffffffffffffffffff168152509050601381908060018154018082558091505090600182039060005260206000209060020201600090919290919091506000820151816000015560208201518160010160006101000a81548173ffffffffffffffffffffffffffffffffffffffff021916908373ffffffffffffffffffffffffffffffffffffffff16021790555050505060008383604051602001808381526020018273ffffffffffffffffffffffffffffffffffffffff1673ffffffffffffffffffffffffffffffffffffffff1660601b81526014019250505060405160208183030381529060405280519060200120905081601560008381526020019081526020016000206000820151816000015560208201518160010160006101000a81548173ffffffffffffffffffffffffffffffffffffffff021916908373ffffffffffffffffffffffffffffffffffffffff1602179055509050507f078793128cefb19aac38a33f9e5df39f67716907f6d747e8065545699e0b2b8d8484604051808381526020018273ffffffffffffffffffffffffffffffffffffffff1673ffffffffffffffffffffffffffffffffffffffff1681526020019250505060405180910390a150505050565b6002600082815260200190815260200160002060009054906101000a900473ffffffffffffffffffffffffffffffffffffffff1673ffffffffffffffffffffffffffffffffffffffff168373ffffffffffffffffffffffffffffffffffffffff16146126ef576040517f08c379a00000000000000000000000000000000000000000000000000000000081526004018080602001828103825260288152602001806135ce6028913960400191505060405180910390fd5b600073ffffffffffffffffffffffffffffffffffffffff168273ffffffffffffffffffffffffffffffffffffffff161415612775576040517f08c379a000000000000000000000000000000000000000000000000000000000815260040180806020018281038252602281526020018061358a6022913960400191505060405180910390fd5b61277e81612f43565b6127c5600460008573ffffffffffffffffffffffffffffffffffffffff1673ffffffffffffffffffffffffffffffffffffffff168152602001908152602001600020613001565b61280c600460008473ffffffffffffffffffffffffffffffffffffffff1673ffffffffffffffffffffffffffffffffffffffff168152602001908152602001600020613024565b816002600083815260200190815260200160002060006101000a81548173ffffffffffffffffffffffffffffffffffffffff021916908373ffffffffffffffffffffffffffffffffffffffff160217905550808273ffffffffffffffffffffffffffffffffffffffff168473ffffffffffffffffffffffffffffffffffffffff167fddf252ad1be2c89b69c2b068fc378daa952ba7f163c4a11628f55a4df523b3ef60405160405180910390a4505050565b60006129166001600660008673ffffffffffffffffffffffffffffffffffffffff1673ffffffffffffffffffffffffffffffffffffffff1681526020019081526020016000208054905061303a90919063ffffffff16565b9050600060076000848152602001908152602001600020549050818114612a03576000600660008673ffffffffffffffffffffffffffffffffffffffff1673ffffffffffffffffffffffffffffffffffffffff168152602001908152602001600020838154811061298357fe5b9060005260206000200154905080600660008773ffffffffffffffffffffffffffffffffffffffff1673ffffffffffffffffffffffffffffffffffffffff16815260200190815260200160002083815481106129db57fe5b9060005260206000200181905550816007600083815260200190815260200160002081905550505b600660008573ffffffffffffffffffffffffffffffffffffffff1673ffffffffffffffffffffffffffffffffffffffff168152602001908152602001600020805480919060019003612a5591906134b6565b5050505050565b600660008373ffffffffffffffffffffffffffffffffffffffff1673ffffffffffffffffffffffffffffffffffffffff168152602001908152602001600020805490506007600083815260200190815260200160002081905550600660008373ffffffffffffffffffffffffffffffffffffffff1673ffffffffffffffffffffffffffffffffffffffff1681526020019081526020016000208190806001815401808255809150509060018203906000526020600020016000909192909190915055505050565b60008060007fc5d2460186f7233c927e7db2dcc703c0e500b653ca82273b7bfad8045d85a47060001b9050833f9150808214158015612b6557506000801b8214155b92505050919050565b600073ffffffffffffffffffffffffffffffffffffffff168273ffffffffffffffffffffffffffffffffffffffff161415612c11576040517f08c379a00000000000000000000000000000000000000000000000000000000081526004018080602001828103825260158152602001807f4d494e543a204144445245535320494e56414c4944000000000000000000000081525060200191505060405180910390fd5b612c1a81612279565b15612c8d576040517f08c379a000000000000000000000000000000000000000000000000000000000815260040180806020018281038252601b8152602001807f4d494e543a20544f4b454e20414c52454144592045584953545321000000000081525060200191505060405180910390fd5b612cd4600460008473ffffffffffffffffffffffffffffffffffffffff1673ffffffffffffffffffffffffffffffffffffffff168152602001908152602001600020613024565b816002600083815260200190815260200160002060006101000a81548173ffffffffffffffffffffffffffffffffffffffff021916908373ffffffffffffffffffffffffffffffffffffffff160217905550808273ffffffffffffffffffffffffffffffffffffffff16600073ffffffffffffffffffffffffffffffffffffffff167fddf252ad1be2c89b69c2b068fc378daa952ba7f163c4a11628f55a4df523b3ef60405160405180910390a45050565b6008805490506009600083815260200190815260200160002081905550600881908060018154018082558091505090600182039060005260206000200160009091929091909150555050565b60606000821415612e1a576040518060400160405280600181526020017f30000000000000000000000000000000000000000000000000000000000000008152509050612efa565b600082905060005b60008214612e44578080600101915050600a8281612e3c57fe5b049150612e22565b6060816040519080825280601f01601f191660200182016040528015612e795781602001600182028038833980820191505090505b50905060006001830390505b60008614612ef257600a8681612e9757fe5b0660300160f81b82828060019003935081518110612eb157fe5b60200101907effffffffffffffffffffffffffffffffffffffffffffffffffffffffffffff1916908160001a905350600a8681612eea57fe5b049550612e85565b819450505050505b919050565b6060612f3b8383604051806020016040528060008152506040518060200160405280600081525060405180602001604052806000815250613084565b905092915050565b600073ffffffffffffffffffffffffffffffffffffffff166003600083815260200190815260200160002060009054906101000a900473ffffffffffffffffffffffffffffffffffffffff1673ffffffffffffffffffffffffffffffffffffffff1614612ffe5760006003600083815260200190815260200160002060006101000a81548173ffffffffffffffffffffffffffffffffffffffff021916908373ffffffffffffffffffffffffffffffffffffffff1602179055505b50565b6130196001826000015461303a90919063ffffffff16565b816000018190555050565b6001816000016000828254019250508190555050565b600061307c83836040518060400160405280601e81526020017f536166654d6174683a207375627472616374696f6e206f766572666c6f770000815250613346565b905092915050565b6060808690506060869050606086905060608690506060869050606081518351855187518951010101016040519080825280601f01601f1916602001820160405280156130e05781602001600182028038833980820191505090505b509050606081905060008090506000809050600090505b88518110156131655788818151811061310c57fe5b602001015160f81c60f81b83838060010194508151811061312957fe5b60200101907effffffffffffffffffffffffffffffffffffffffffffffffffffffffffffff1916908160001a90535080806001019150506130f7565b600090505b87518110156131d85787818151811061317f57fe5b602001015160f81c60f81b83838060010194508151811061319c57fe5b60200101907effffffffffffffffffffffffffffffffffffffffffffffffffffffffffffff1916908160001a905350808060010191505061316a565b600090505b865181101561324b578681815181106131f257fe5b602001015160f81c60f81b83838060010194508151811061320f57fe5b60200101907effffffffffffffffffffffffffffffffffffffffffffffffffffffffffffff1916908160001a90535080806001019150506131dd565b600090505b85518110156132be5785818151811061326557fe5b602001015160f81c60f81b83838060010194508151811061328257fe5b60200101907effffffffffffffffffffffffffffffffffffffffffffffffffffffffffffff1916908160001a9053508080600101915050613250565b600090505b8451811015613331578481815181106132d857fe5b602001015160f81c60f81b8383806001019450815181106132f557fe5b60200101907effffffffffffffffffffffffffffffffffffffffffffffffffffffffffffff1916908160001a90535080806001019150506132c3565b82995050505050505050505095945050505050565b60008383111582906133f3576040517f08c379a00000000000000000000000000000000000000000000000000000000081526004018080602001828103825283818151815260200191508051906020019080838360005b838110156133b857808201518184015260208101905061339d565b50505050905090810190601f1680156133e55780820380516001836020036101000a031916815260200191505b509250505060405180910390fd5b5060008385039050809150509392505050565b828054600181600116156101000203166002900490600052602060002090601f016020900481019282601f1061344757805160ff1916838001178555613475565b82800160010185558215613475579182015b82811115613474578251825591602001919060010190613459565b5b50905061348291906134e2565b5090565b604051806040016040528060008152602001600073ffffffffffffffffffffffffffffffffffffffff1681525090565b8154818355818111156134dd578183600052602060002091820191016134dc91906134e2565b5b505050565b61350491905b808211156135005760008160009055506001016134e8565b5090565b9056fe47455420415050524f5645443a20544f4b454e20415050524f56414c20444f4553204e4f5420455849535421534f4c4e20535155415245204d494e543a2057524f4e4720564552494649434154494f4e21415050524f56453a204e4f5420434f4e5452414354204f574e4552204e4f5220415050524f56454420464f5220414c4c215452414e534645522046524f4d3a20494e56414c494420544f2041444452455353214f4e4c59204f574e45522043414e2043414c4c20544849532046554e4354494f4e215452414e534645522046524f4d3a20594f5520444f204e4f54204f574e2054484520544f4b454e21415050524f56453a204144445245535320414c524541445920415050524f56454453455420544f4b454e205552493a20544f4b454e20494420444f4553204e4f542045584953545a45524f20414444524553533a205a45524f20414444524553532043414e2754204245204f574e455221534f4c4e20535155415245204d494e543a20534f4c5554494f4e20414c5245414459204558495354532168747470733a2f2f73332d75732d776573742d322e616d617a6f6e6177732e636f6d2f756461636974792d626c6f636b636861696e2f63617073746f6e652f544f4b454e205552493a20544f4b454e20494420444f4553204e4f54204558495354a265627a7a72315820cd81298ec0c6254450e7e5aa90baf5f65baed7dd6b86a875be69704dbd5fba1764736f6c63430005100032608060405234801561001057600080fd5b5061108a806100206000396000f3fe608060405234801561001057600080fd5b506004361061002b5760003560e01c8063621e9ec014610030575b600080fd5b61018f600480360361014081101561004757600080fd5b8101908080604001906002806020026040519081016040528092919082600260200280828437600081840152601f19601f82011690508083019250505050505091929192908060800190600280602002604051908101604052809291906000905b828210156100fc578382604002016002806020026040519081016040528092919082600260200280828437600081840152601f19601f820116905080830192505050505050815260200190600101906100a8565b50505050919291929080604001906002806020026040519081016040528092919082600260200280828437600081840152601f19601f820116905080830192505050505050919291929080604001906002806020026040519081016040528092919082600260200280828437600081840152601f19601f82011690508083019250505050505091929192905050506101a9565b604051808215151515815260200191505060405180910390f35b60006101b3610ef9565b6040518060400160405280876000600281106101cb57fe5b60200201518152602001876001600281106101e257fe5b60200201518152508160000181905250604051806040016040528060405180604001604052808860006002811061021557fe5b602002015160006002811061022657fe5b602002015181526020018860006002811061023d57fe5b602002015160016002811061024e57fe5b6020020151815250815260200160405180604001604052808860016002811061027357fe5b602002015160006002811061028457fe5b602002015181526020018860016002811061029b57fe5b60200201516001600281106102ac57fe5b602002015181525081525081602001819052506040518060400160405280856000600281106102d757fe5b60200201518152602001856001600281106102ee57fe5b60200201518152508160400181905250606060026040519080825280602002602001820160405280156103305781602001602082028038833980820191505090505b50905060008090505b60028110156103785784816002811061034e57fe5b602002015182828151811061035f57fe5b6020026020010181815250508080600101915050610339565b50600061038582846103a5565b14156103965760019250505061039d565b6000925050505b949350505050565b6000807f30644e72e131a029b85045b68181585d2833e84879b9709143e1f593f000000190506103d3610f2c565b6103db610517565b90508060800151516001865101146103f257600080fd5b6103fa610f73565b6040518060400160405280600081526020016000815250905060008090505b8651811015610490578387828151811061042f57fe5b60200260200101511061044157600080fd5b6104818261047c8560800151600185018151811061045b57fe5b60200260200101518a858151811061046f57fe5b6020026020010151610965565b6109f7565b91508080600101915050610419565b506104b38183608001516000815181106104a657fe5b60200260200101516109f7565b90506104f9856000015186602001516104cb84610aa8565b85604001516104dd8a60400151610aa8565b87606001516104ef8960000151610aa8565b8960200151610b42565b6105095760019350505050610511565b600093505050505b92915050565b61051f610f2c565b60405180604001604052807f2609873976923bc19b12af8b3f5e227a0f8f6b8c6d64ec3dcb43841d42d1d1e181526020017f2591c4c1df2f5bc0074d4607bda9dcff418d77bac007351849609f08e1af0ea58152508160000181905250604051806040016040528060405180604001604052807f14106a0bf2ed256cf7a3c8f31ff28b82585e52fc2c3e6591b731d8585111d71681526020017f0f1f882bcf6c7227fa4751e5a3c8fb4a74bee7617dac72484849212702f572ae815250815260200160405180604001604052807f1a31dd4d77642372c8d73994d05ba0c1c4f88d2c4a4e95677307f06d0ab1d08e81526020017f05f9bcb8fdfdc882d19e953015036440495c79b79ce47db5b1f9d7d6a6e094f28152508152508160200181905250604051806040016040528060405180604001604052807f268783de489d05b9dce708298ce12fdb693622915e9d640c5114e35eca8d4a2781526020017f0e4a44c9e9764ab5aecd1eda3993529f7c154bda2f9bea737c29e21938ad1f51815250815260200160405180604001604052807f2256d86d185c049996f67f0f424b69cf563c27ad5e112d0f672e0550d0182bbe81526020017f2d74bb4ca18d735a37b42a67ea30caf0832f32d92542d8d02954a0c2fb90b9948152508152508160400181905250604051806040016040528060405180604001604052807f132eb4f299194243851d7d133aa85721a3d5651a004f17df598bcd18567ea76c81526020017f146e12e4e7407310c6d1b335aed03867f34bab5a76a3678ec4494cf15e621551815250815260200160405180604001604052807f26f26d9a231b7851cd9c03800e787c79a0451a51b99a9ffd14dfab6e3ec830be81526020017f2e2397bfa61e715ca2aee7b7ac38d7f8dfcd720bed02b6cfa0aba9d7794bb9368152508152508160600181905250600360405190808252806020026020018201604052801561080657816020015b6107f3610f8d565b8152602001906001900390816107eb5790505b50816080018190525060405180604001604052807f07942dc940f47fe8ef52c0a76f1cc9cb9dce01fc3f9d50d214db8d1423cdd10881526020017f27511f84d706c9d255afb50c47f6ff7d4396a820c834a5c42047b2b40b97fa8b815250816080015160008151811061087557fe5b602002602001018190525060405180604001604052807f1c5854637fd188d9cc46fe8d0f5de092058f9589aee8994dbecaeacf61595d7181526020017f2a5fdb82656c0bd64f813ab10b4f978e538964ca2ae2bbdd6cd29834567ec6e781525081608001516001815181106108e657fe5b602002602001018190525060405180604001604052807f18d751af0df0f8667220567d5d3a2684c5579bd8ba1d735b921f965c0f17c30181526020017f214cc1ab63a8e85f881465e10c529a054315248496a67332d901e53d554139e6815250816080015160028151811061095757fe5b602002602001018190525090565b61096d610f73565b610975610fa7565b83600001518160006003811061098757fe5b6020020181815250508360200151816001600381106109a257fe5b60200201818152505082816002600381106109b957fe5b602002018181525050600060608360808460076107d05a03fa905080600081146109e2576109e4565bfe5b50806109ef57600080fd5b505092915050565b6109ff610f73565b610a07610fc9565b836000015181600060048110610a1957fe5b602002018181525050836020015181600160048110610a3457fe5b602002018181525050826000015181600260048110610a4f57fe5b602002018181525050826020015181600360048110610a6a57fe5b602002018181525050600060608360c08460066107d05a03fa90508060008114610a9357610a95565bfe5b5080610aa057600080fd5b505092915050565b610ab0610f73565b60007f30644e72e131a029b85045b68181585d97816a916871ca8d3c208c16d87cfd47905060008360000151148015610aed575060008360200151145b15610b11576040518060400160405280600081526020016000815250915050610b3d565b60405180604001604052808460000151815260200182856020015181610b3357fe5b0683038152509150505b919050565b600060606004604051908082528060200260200182016040528015610b8157816020015b610b6e610f8d565b815260200190600190039081610b665790505b50905060606004604051908082528060200260200182016040528015610bc157816020015b610bae610feb565b815260200190600190039081610ba65790505b5090508a82600081518110610bd257fe5b60200260200101819052508882600181518110610beb57fe5b60200260200101819052508682600281518110610c0457fe5b60200260200101819052508482600381518110610c1d57fe5b60200260200101819052508981600081518110610c3657fe5b60200260200101819052508781600181518110610c4f57fe5b60200260200101819052508581600281518110610c6857fe5b60200260200101819052508381600381518110610c8157fe5b6020026020010181905250610c968282610ca6565b9250505098975050505050505050565b60008151835114610cb657600080fd5b6000835190506000600682029050606081604051908082528060200260200182016040528015610cf55781602001602082028038833980820191505090505b50905060008090505b83811015610e9b57868181518110610d1257fe5b602002602001015160000151826000600684020181518110610d3057fe5b602002602001018181525050868181518110610d4857fe5b602002602001015160200151826001600684020181518110610d6657fe5b602002602001018181525050858181518110610d7e57fe5b602002602001015160000151600160028110610d9657fe5b6020020151826002600684020181518110610dad57fe5b602002602001018181525050858181518110610dc557fe5b602002602001015160000151600060028110610ddd57fe5b6020020151826003600684020181518110610df457fe5b602002602001018181525050858181518110610e0c57fe5b602002602001015160200151600160028110610e2457fe5b6020020151826004600684020181518110610e3b57fe5b602002602001018181525050858181518110610e5357fe5b602002602001015160200151600060028110610e6b57fe5b6020020151826005600684020181518110610e8257fe5b6020026020010181815250508080600101915050610cfe565b50610ea4611011565b6000602082602086026020860160086107d05a03fa90508060008114610ec957610ecb565bfe5b5080610ed657600080fd5b600082600060018110610ee557fe5b602002015114159550505050505092915050565b6040518060600160405280610f0c610f8d565b8152602001610f19610feb565b8152602001610f26610f8d565b81525090565b6040518060a00160405280610f3f610f8d565b8152602001610f4c610feb565b8152602001610f59610feb565b8152602001610f66610feb565b8152602001606081525090565b604051806040016040528060008152602001600081525090565b604051806040016040528060008152602001600081525090565b6040518060600160405280600390602082028038833980820191505090505090565b6040518060800160405280600490602082028038833980820191505090505090565b6040518060400160405280610ffe611033565b815260200161100b611033565b81525090565b6040518060200160405280600190602082028038833980820191505090505090565b604051806040016040528060029060208202803883398082019150509050509056fea265627a7a723158209ce3f5a5715ce680ef275cbdde2a863486feb61e0013e943b7366254a935361e64736f6c6343000510003268747470733a2f2f73332d75732d776573742d322e616d617a6f6e6177732e636f6d2f756461636974792d626c6f636b636861696e2f63617073746f6e652f",
  "source": "pragma solidity >=0.4.21 <0.6.0;\n\nimport { BitlandProperty } from \"./ERC721Mintable.sol\";\nimport 'openzeppelin-solidity/contracts/math/SafeMath.sol';\nimport \"./Verifier.sol\";\n\n// TODO define a contract call to the zokrates generated solidity contract <Verifier> or <renamedVerifier>\n\n/*interface Verifier {\n    function verifyTx(\n            uint[2] memory a,\n            uint[2][2] memory b,\n            uint[2] memory c, uint[2] memory input\n        ) public view returns (bool r);\n}*/\n\n// TODO define another contract named SolnSquareVerifier that inherits from your ERC721Mintable class\ncontract SolnSquareVerifier is BitlandProperty {\n\n    using SafeMath for uint256;\n\n    // TODO define a solutions struct that can hold an index & an address\n    struct Solution {\n        uint256 index;\n        address client;\n    }\n    // TODO define an array of the above struct\n    Solution[] private Solutions;\n    address private _owner;\n\n    // TODO define a mapping to store unique solutions submitted\n    mapping(bytes32 => Solution) private uniqueSolutions;\n    string constant private TOKEN_URI = \"https://s3-us-west-2.amazonaws.com/udacity-blockchain/capstone/\";\n\n    // Verifier contract\n    Verifier VerifierContract;\n\n    // TODO Create an event to emit when a solution is added\n    event SolutionAdded(uint256 index, address client);\n    event Minted(address to, uint256 tokenId);\n\n    // modifiers\n    modifier onlyOwner () {\n        require(msg.sender == _owner, \"ONLY OWNER CAN CALL THIS FUNCTION!\");\n        _;\n    }\n\n    constructor (string memory name, string memory symbol) public BitlandProperty(name, symbol) {\n        _owner = msg.sender;\n        //Solutions = new Solution[](0); // causing storage to memory copy error\n        VerifierContract = new Verifier();\n    }\n\n    // TODO Create a function to add the solutions to the array and emit the event\n    /***\n    * @dev add solution to solutions\n    * @param index token id\n    * @param clientAddress address of client who wants to mint\n    */\n    function addSolution(uint256 index, address clientAddress) internal {\n        Solution memory solution = Solution({\n            index: index,\n            client: clientAddress\n        });\n        Solutions.push(solution);\n        bytes32 key = keccak256(abi.encodePacked(index, clientAddress));\n        uniqueSolutions[key] = solution;\n\n        emit SolutionAdded(index, clientAddress);\n    }\n\n    // TODO Create a function to mint new NFT only after the solution has been verified\n    //  - make sure the solution is unique (has not been used before)\n    //  - make sure you handle metadata as well as tokenSupply\n    /**\n    * @dev mint new NFT only after verifying solution\n    *\n    * */\n    function mint(\n                address to, \n                uint256 tokenId,\n                uint[2] memory a,\n                uint[2][2] memory b,\n                uint[2] memory c, \n                uint[2] memory input\n                ) public onlyOwner {\n        bytes32 key = keccak256(abi.encodePacked(tokenId, to));\n        require(uniqueSolutions[key].client == address(0), \"SOLN SQUARE MINT: SOLUTION ALREADY EXISTS!\");\n        require(VerifierContract.verifyTx(a, b, c, input), \"SOLN SQUARE MINT: WRONG VERIFICATION!\");\n        addSolution(tokenId, to);\n        \n        super.mint(to, tokenId, TOKEN_URI);\n\n        emit Minted(to, tokenId);\n    }\n}\n\n\n\n\n\n\n\n\n\n\n\n\n\n\n\n\n\n\n\n\n\n\n  \n\n\n\n\n\n\n\n\n\n\n\n\n\n\n\n\n\n\n\n\n\n\n\n\n\n\n",
  "sourcePath": "/home/mas/Code/courses/udacity/blockchain_nd/Capstone/eth-contracts/contracts/SolnSquareVerifier.sol",
  "compiler": {
    "name": "solc",
    "version": "0.5.16+commit.9c3226ce.Emscripten.clang"
  },
  "schemaVersion": "3.3.1",
  "updatedAt": "2021-04-04T22:38:26.829Z",
  "networkType": "ethereum",
  "devdoc": {
    "methods": {
      "isApprovedForAll(address,address)": {
        "details": "Tells whether an operator is approved by a given owner",
        "params": {
          "operator": "operator address which you want to query the approval of",
          "owner": "owner address which you want to query the approval of"
        },
        "return": "bool whether the given operator is approved by the given owner"
      },
      "mint(address,uint256,uint256[2],uint256[2][2],uint256[2],uint256[2])": {
        "details": "mint new NFT only after verifying solution    * "
      },
      "setApprovalForAll(address,bool)": {
        "details": "Sets or unsets the approval of a given operator An operator is allowed to transfer all tokens of the sender on their behalf",
        "params": {
          "approved": "representing the status of the approval to be set",
          "to": "operator address to set the approval"
        }
      },
      "setPaused(bool)": {
        "details": "set paused state of contract"
      },
      "supportsInterface(bytes4)": {
        "details": "implement supportsInterface(bytes4) using a lookup table"
      },
      "tokenByIndex(uint256)": {
        "details": "Gets the token ID at a given index of all the tokens in this contract Reverts if the index is greater or equal to the total number of tokens",
        "params": {
          "index": "uint256 representing the index to be accessed of the tokens list"
        },
        "return": "uint256 token ID at the given index of the tokens list"
      },
      "tokenOfOwnerByIndex(address,uint256)": {
        "details": "Gets the token ID at a given index of the tokens list of the requested owner",
        "params": {
          "index": "uint256 representing the index to be accessed of the requested tokens list",
          "owner": "address owning the tokens list to be accessed"
        },
        "return": "uint256 token ID at the given index of the tokens list owned by the requested address"
      },
      "totalSupply()": {
        "details": "Gets the total amount of tokens stored by the contract",
        "return": "uint256 representing the total amount of tokens"
      }
    }
  },
  "userdoc": {
    "methods": {}
  }
}